{
  "_format": "hh3-artifact-1",
  "contractName": "VestingWallet",
  "sourceName": "contracts/VestingWallet.sol",
  "abi": [
    {
      "inputs": [
        {
          "internalType": "address",
          "name": "_token",
          "type": "address"
        },
        {
          "internalType": "address",
          "name": "_beneficiary",
          "type": "address"
        },
        {
          "internalType": "uint256",
          "name": "_totalAmount",
          "type": "uint256"
        },
        {
          "internalType": "uint256",
          "name": "_cliffDays",
          "type": "uint256"
        },
        {
          "internalType": "uint256",
          "name": "_durationDays",
          "type": "uint256"
        }
      ],
      "stateMutability": "nonpayable",
      "type": "constructor"
    },
    {
      "inputs": [],
      "name": "AlreadyFunded",
      "type": "error"
    },
    {
      "inputs": [],
      "name": "CliffNotReached",
      "type": "error"
    },
    {
      "inputs": [],
      "name": "DurationShorterThanCliff",
      "type": "error"
    },
    {
      "inputs": [],
      "name": "NotFunded",
      "type": "error"
    },
    {
      "inputs": [],
      "name": "NothingToRelease",
      "type": "error"
    },
    {
      "inputs": [
        {
          "internalType": "address",
          "name": "owner",
          "type": "address"
        }
      ],
      "name": "OwnableInvalidOwner",
      "type": "error"
    },
    {
      "inputs": [
        {
          "internalType": "address",
          "name": "account",
          "type": "address"
        }
      ],
      "name": "OwnableUnauthorizedAccount",
      "type": "error"
    },
    {
      "inputs": [],
      "name": "VestingAlreadyRevoked",
      "type": "error"
    },
    {
      "inputs": [],
      "name": "ZeroAddress",
      "type": "error"
    },
    {
      "inputs": [],
      "name": "ZeroAmount",
      "type": "error"
    },
    {
      "anonymous": false,
      "inputs": [
        {
          "indexed": false,
          "internalType": "uint256",
          "name": "amount",
          "type": "uint256"
        }
      ],
      "name": "Funded",
      "type": "event"
    },
    {
      "anonymous": false,
      "inputs": [
        {
          "indexed": true,
          "internalType": "address",
          "name": "previousOwner",
          "type": "address"
        },
        {
          "indexed": true,
          "internalType": "address",
          "name": "newOwner",
          "type": "address"
        }
      ],
      "name": "OwnershipTransferred",
      "type": "event"
    },
    {
      "anonymous": false,
      "inputs": [
        {
          "indexed": true,
          "internalType": "address",
          "name": "beneficiary",
          "type": "address"
        },
        {
          "indexed": false,
          "internalType": "uint256",
          "name": "amount",
          "type": "uint256"
        }
      ],
      "name": "TokensReleased",
      "type": "event"
    },
    {
      "anonymous": false,
      "inputs": [
        {
          "indexed": true,
          "internalType": "address",
          "name": "beneficiary",
          "type": "address"
        },
        {
          "indexed": false,
          "internalType": "uint256",
          "name": "amountReturnedToOwner",
          "type": "uint256"
        }
      ],
      "name": "VestingRevoked",
      "type": "event"
    },
    {
      "inputs": [],
      "name": "beneficiary",
      "outputs": [
        {
          "internalType": "address",
          "name": "",
          "type": "address"
        }
      ],
      "stateMutability": "view",
      "type": "function"
    },
    {
      "inputs": [],
      "name": "cliff",
      "outputs": [
        {
          "internalType": "uint256",
          "name": "",
          "type": "uint256"
        }
      ],
      "stateMutability": "view",
      "type": "function"
    },
    {
      "inputs": [],
      "name": "duration",
      "outputs": [
        {
          "internalType": "uint256",
          "name": "",
          "type": "uint256"
        }
      ],
      "stateMutability": "view",
      "type": "function"
    },
    {
      "inputs": [],
      "name": "fund",
      "outputs": [],
      "stateMutability": "nonpayable",
      "type": "function"
    },
    {
      "inputs": [],
      "name": "funded",
      "outputs": [
        {
          "internalType": "bool",
          "name": "",
          "type": "bool"
        }
      ],
      "stateMutability": "view",
      "type": "function"
    },
    {
      "inputs": [],
      "name": "owner",
      "outputs": [
        {
          "internalType": "address",
          "name": "",
          "type": "address"
        }
      ],
      "stateMutability": "view",
      "type": "function"
    },
    {
      "inputs": [],
      "name": "releasableAmount",
      "outputs": [
        {
          "internalType": "uint256",
          "name": "",
          "type": "uint256"
        }
      ],
      "stateMutability": "view",
      "type": "function"
    },
    {
      "inputs": [],
      "name": "release",
      "outputs": [],
      "stateMutability": "nonpayable",
      "type": "function"
    },
    {
      "inputs": [],
      "name": "released",
      "outputs": [
        {
          "internalType": "uint256",
          "name": "",
          "type": "uint256"
        }
      ],
      "stateMutability": "view",
      "type": "function"
    },
    {
      "inputs": [],
      "name": "renounceOwnership",
      "outputs": [],
      "stateMutability": "nonpayable",
      "type": "function"
    },
    {
      "inputs": [],
      "name": "revoke",
      "outputs": [],
      "stateMutability": "nonpayable",
      "type": "function"
    },
    {
      "inputs": [],
      "name": "revoked",
      "outputs": [
        {
          "internalType": "bool",
          "name": "",
          "type": "bool"
        }
      ],
      "stateMutability": "view",
      "type": "function"
    },
    {
      "inputs": [],
      "name": "start",
      "outputs": [
        {
          "internalType": "uint256",
          "name": "",
          "type": "uint256"
        }
      ],
      "stateMutability": "view",
      "type": "function"
    },
    {
      "inputs": [],
      "name": "token",
      "outputs": [
        {
          "internalType": "contract IERC20",
          "name": "",
          "type": "address"
        }
      ],
      "stateMutability": "view",
      "type": "function"
    },
    {
      "inputs": [],
      "name": "totalAmount",
      "outputs": [
        {
          "internalType": "uint256",
          "name": "",
          "type": "uint256"
        }
      ],
      "stateMutability": "view",
      "type": "function"
    },
    {
      "inputs": [
        {
          "internalType": "address",
          "name": "newOwner",
          "type": "address"
        }
      ],
      "name": "transferOwnership",
      "outputs": [],
      "stateMutability": "nonpayable",
      "type": "function"
    },
    {
      "inputs": [],
      "name": "vestedAmount",
      "outputs": [
        {
          "internalType": "uint256",
          "name": "",
          "type": "uint256"
        }
      ],
      "stateMutability": "view",
      "type": "function"
    },
    {
      "inputs": [],
      "name": "vestingEnd",
      "outputs": [
        {
          "internalType": "uint256",
          "name": "",
          "type": "uint256"
        }
      ],
      "stateMutability": "view",
      "type": "function"
    }
  ],
  "bytecode": "0x610140604052348015610010575f5ffd5b50604051610f6a380380610f6a83398101604081905261002f916101a6565b338061005457604051631e4fbdf760e01b81525f600482015260240160405180910390fd5b61005d8161013c565b506001600160a01b0385166100855760405163d92e233d60e01b815260040160405180910390fd5b6001600160a01b0384166100ac5760405163d92e233d60e01b815260040160405180910390fd5b825f036100cc57604051631f2a200560e01b815260040160405180910390fd5b8181116100ec5760405163625a1c5760e11b815260040160405180910390fd5b6001600160a01b03808616608052841660a0524260c0526101108262015180610204565b61011a9042610221565b60e05261012a8162015180610204565b61010052505061012052506102349050565b5f80546001600160a01b038381166001600160a01b0319831681178455604051919092169283917f8be0079c531659141344cd1fd0a4f28419497f9722a3daafe3b4186f6b6457e09190a35050565b80516001600160a01b03811681146101a1575f5ffd5b919050565b5f5f5f5f5f60a086880312156101ba575f5ffd5b6101c38661018b565b94506101d16020870161018b565b6040870151606088015160809098015196999198509695945092505050565b634e487b7160e01b5f52601160045260245ffd5b808202811582820484141761021b5761021b6101f0565b92915050565b8082018082111561021b5761021b6101f0565b60805160a05160c05160e0516101005161012051610c4e61031c5f395f818161017b01528181610367015281816103dd0152818161073d015281816107db015261087a01525f818161011a01528181610319015281816103b8015261048601525f8181610154015281816102d701528181610427015261053e01525f81816102510152818161033a0152818161038f01526104a701525f81816101a2015281816104fe015281816105e20152818161067e015281816108e00152610a3301525f818161029d015281816106110152818161076b0152818161090f01526109830152610c4e5ff3fe608060405234801561000f575f5ffd5b5060043610610111575f3560e01c806386d1a69f1161009e578063b6549f751161006e578063b6549f7514610244578063be9a65551461024c578063f2fde38b14610273578063f3a504f214610286578063fc0c546a14610298575f5ffd5b806386d1a69f1461021b5780638da5cb5b146102235780639613252114610233578063b60d42881461023c575f5ffd5b806344b1231f116100e457806344b1231f146101dc5780635b940081146101e457806363d256ce146101ec578063715018a61461020957806384a1931f14610213575f5ffd5b80630fb5a6b41461011557806313d033c01461014f5780631a39d8ef1461017657806338af3eed1461019d575b5f5ffd5b61013c7f000000000000000000000000000000000000000000000000000000000000000081565b6040519081526020015b60405180910390f35b61013c7f000000000000000000000000000000000000000000000000000000000000000081565b61013c7f000000000000000000000000000000000000000000000000000000000000000081565b6101c47f000000000000000000000000000000000000000000000000000000000000000081565b6040516001600160a01b039091168152602001610146565b61013c6102bf565b61013c610411565b6002546101f99060ff1681565b6040519015158152602001610146565b61021161046d565b005b61013c610480565b6102116104cb565b5f546001600160a01b03166101c4565b61013c60015481565b6102116106e2565b61021161082b565b61013c7f000000000000000000000000000000000000000000000000000000000000000081565b610211610281366004610b56565b610a99565b6002546101f990610100900460ff1681565b6101c47f000000000000000000000000000000000000000000000000000000000000000081565b6002545f90610100900460ff166102d557505f90565b7f000000000000000000000000000000000000000000000000000000000000000042101561030257505f90565b60025460ff1615610314575060015490565b61035e7f00000000000000000000000000000000000000000000000000000000000000007f0000000000000000000000000000000000000000000000000000000000000000610b97565b421061038957507f000000000000000000000000000000000000000000000000000000000000000090565b5f6103b47f000000000000000000000000000000000000000000000000000000000000000042610bb0565b90507f0000000000000000000000000000000000000000000000000000000000000000610401827f0000000000000000000000000000000000000000000000000000000000000000610bc3565b61040b9190610bda565b91505090565b6002545f90610100900460ff16158061044957507f000000000000000000000000000000000000000000000000000000000000000042105b1561045357505f90565b60015461045e6102bf565b6104689190610bb0565b905090565b610475610adb565b61047e5f610b07565b565b5f6104687f00000000000000000000000000000000000000000000000000000000000000007f0000000000000000000000000000000000000000000000000000000000000000610b97565b600254610100900460ff166104f357604051636af784dd60e11b815260040160405180910390fd5b336001600160a01b037f0000000000000000000000000000000000000000000000000000000000000000161461053c5760405163d92e233d60e01b815260040160405180910390fd5b7f000000000000000000000000000000000000000000000000000000000000000042101561057d5760405163392a328760e01b815260040160405180910390fd5b5f6001546105896102bf565b6105939190610bb0565b9050805f036105b55760405163b10205ed60e01b815260040160405180910390fd5b8060015f8282546105c69190610b97565b909155505060405163a9059cbb60e01b81526001600160a01b037f000000000000000000000000000000000000000000000000000000000000000081166004830152602482018390527f0000000000000000000000000000000000000000000000000000000000000000169063a9059cbb906044016020604051808303815f875af1158015610657573d5f5f3e3d5ffd5b505050506040513d601f19601f8201168201806040525081019061067b9190610bf9565b507f00000000000000000000000000000000000000000000000000000000000000006001600160a01b03167fc7798891864187665ac6dd119286e44ec13f014527aeeb2b8eb3fd413df93179826040516106d791815260200190565b60405180910390a250565b6106ea610adb565b600254610100900460ff161561071357604051635adf638760e01b815260040160405180910390fd5b6002805461ff0019166101001790556040516323b872dd60e01b81523360048201523060248201527f000000000000000000000000000000000000000000000000000000000000000060448201526001600160a01b037f000000000000000000000000000000000000000000000000000000000000000016906323b872dd906064016020604051808303815f875af11580156107b1573d5f5f3e3d5ffd5b505050506040513d601f19601f820116820180604052508101906107d59190610bf9565b506040517f000000000000000000000000000000000000000000000000000000000000000081527fc4c14883ae9fd8e26d5d59e3485ed29fd126d781d7e498a4ca5c54c8268e49369060200160405180910390a1565b610833610adb565b60025460ff1615610857576040516356994e5560e01b815260040160405180910390fd5b5f6108606102bf565b90505f600154826108719190610bb0565b90505f61089e837f0000000000000000000000000000000000000000000000000000000000000000610bb0565b6002805460ff191660011790559050811561097b578160015f8282546108c49190610b97565b909155505060405163a9059cbb60e01b81526001600160a01b037f000000000000000000000000000000000000000000000000000000000000000081166004830152602482018490527f0000000000000000000000000000000000000000000000000000000000000000169063a9059cbb906044016020604051808303815f875af1158015610955573d5f5f3e3d5ffd5b505050506040513d601f19601f820116820180604052508101906109799190610bf9565b505b8015610a31577f00000000000000000000000000000000000000000000000000000000000000006001600160a01b031663a9059cbb6109c15f546001600160a01b031690565b6040516001600160e01b031960e084901b1681526001600160a01b039091166004820152602481018490526044016020604051808303815f875af1158015610a0b573d5f5f3e3d5ffd5b505050506040513d601f19601f82011682018060405250810190610a2f9190610bf9565b505b7f00000000000000000000000000000000000000000000000000000000000000006001600160a01b03167f57c76f5e278bfbd4eeb5207d287aa5a1a9e1113c65f7eefa540e379a2774d13b82604051610a8c91815260200190565b60405180910390a2505050565b610aa1610adb565b6001600160a01b038116610acf57604051631e4fbdf760e01b81525f60048201526024015b60405180910390fd5b610ad881610b07565b50565b5f546001600160a01b0316331461047e5760405163118cdaa760e01b8152336004820152602401610ac6565b5f80546001600160a01b038381166001600160a01b0319831681178455604051919092169283917f8be0079c531659141344cd1fd0a4f28419497f9722a3daafe3b4186f6b6457e09190a35050565b5f60208284031215610b66575f5ffd5b81356001600160a01b0381168114610b7c575f5ffd5b9392505050565b634e487b7160e01b5f52601160045260245ffd5b80820180821115610baa57610baa610b83565b92915050565b81810381811115610baa57610baa610b83565b8082028115828204841417610baa57610baa610b83565b5f82610bf457634e487b7160e01b5f52601260045260245ffd5b500490565b5f60208284031215610c09575f5ffd5b81518015158114610b7c575f5ffdfea26469706673582212208d54be77b9fef52b23d55cf8722e8d7b020cc9a456ddfd71a112b52a8471f04264736f6c634300081c0033",
  "linkReferences": {},
  "deployedLinkReferences": {},
  "immutableReferences": {
    "296": [
      {
        "length": 32,
        "start": 669
      },
      {
        "length": 32,
        "start": 1553
      },
      {
        "length": 32,
        "start": 1899
      },
      {
        "length": 32,
        "start": 2319
      },
      {
        "length": 32,
        "start": 2435
      }
    ],
    "298": [
      {
        "length": 32,
        "start": 418
      },
      {
        "length": 32,
        "start": 1278
      },
      {
        "length": 32,
        "start": 1506
      },
      {
        "length": 32,
        "start": 1662
      },
      {
        "length": 32,
        "start": 2272
      },
      {
        "length": 32,
        "start": 2611
      }
    ],
    "300": [
      {
        "length": 32,
        "start": 593
      },
      {
        "length": 32,
        "start": 826
      },
      {
        "length": 32,
        "start": 911
      },
      {
        "length": 32,
        "start": 1191
      }
    ],
    "302": [
      {
        "length": 32,
        "start": 340
      },
      {
        "length": 32,
        "start": 727
      },
      {
        "length": 32,
        "start": 1063
      },
      {
        "length": 32,
        "start": 1342
      }
    ],
    "304": [
      {
        "length": 32,
        "start": 282
      },
      {
        "length": 32,
        "start": 793
      },
      {
        "length": 32,
        "start": 952
      },
      {
        "length": 32,
        "start": 1158
      }
    ],
    "306": [
      {
        "length": 32,
        "start": 379
      },
      {
        "length": 32,
        "start": 871
      },
      {
        "length": 32,
        "start": 989
      },
      {
        "length": 32,
        "start": 1853
      },
      {
        "length": 32,
        "start": 2011
      },
      {
        "length": 32,
        "start": 2170
      }
    ]
  },
  "inputSourceName": "project/contracts/VestingWallet.sol",
  "buildInfoId": "solc-0_8_28-0c576a846082f91c07e57889cc041655203a1a9a"
}